:04000000020059326F
:01000B0032C2
:0100130032BA
:01001B0032B2
:0100230032AA
:01002B0032A2
:030033000204457F
:01003B003292
:03004300023F0079
:01004B003282
:03005300023F0069
:0300C400020056E1
:030056000206E9B6
:2000C70090E6BCE0FF600ABF0102801BBF0260804890E7407404F090E741F090E68AE4F0BD
:2000E70090E68B7402F02253807F75A04143B60443B10490E6F1E090E6F2E090E740F0900D
:20010700E6F0E090E741F090E68AE4F090E68B7402F053B6FB53B1FB2290E7407404F0906B
:20012700E741E4F090E68AF090E68B7402F02290E7407405F090E74104F090E68AE4F09013
:20014700E68B7402F02290E6BAE0FFBF10028037BF18028038BF20028039BF28030201F4FC
:20016700BF300302021DBF3803020265BF40030202B5BF50030202D0BF52030202D7BFA60D
:20018700030203130203CCC28575820122D2857582012290E6BCE0FF74015F035480FE746C
:2001A700025FC42354E0420674045FC40354F8420674085F25E0420674105FC313420674A5
:2001C700205FC423541F420674405FC40354074206530780EF235401420690E740EEF090CC
:2001E700E68AE4F090E68B04F07582012290E6BCE0540FFF24FB50027F048FF005F0740253
:20020700800225E0D5F0FBFF90E461F01F90E462EFF07582012230033290E6BCE0FF30E058
:20022700047F4080027F0090E6BCE0FE30E10543071080035307EF90E6BCE0FE30E205433D
:20024700070880035307F78FB1800F53807F75A08190E6BCE0FF90E6F1F075820122300348
:200267000DE5B1A2E5E433FF90E740F0803253807F75A04153B10490E6F1E090E6F2E0E5BA
:200287008030E20F90E6F2E0FF43074090E740EFF0800D90E6F2E0FF5307BF90E740EFF0CC
:2002A70090E68AE4F090E68B04F07582012290E74074B5F090E7417403F090E68AE4F09001
:2002C700E68B7402F0758201221200C77582012290E6BCE0701FC20390E670E4F075B2FBF1
:2002E70075800890E671F075B4FFF5A090E672F075B6D8801390E6BCE0FFBF010BD20375D2
:20030700B20A75B40075B6587582012275190190E6BBE0FF7E008E048F057E007F0090E69E
:20032700BDE0F879007A008A0389028801E44207E94206EA4205EB420490E6BCE0F8E4F9E6
:20034700FAFBE84207E94206EA4205EB420474012FF510E43EF511E43DF512E43CF5137448
:20036700035510FCE5117D00E5127E00E5137F008C18E513C313F513E51213F512E511131F
:20038700F511E51013F510E513C313F513E51213F512E51113F511E51013F510E5187016BD
:2003A700751804151074FFB5100C1511B511071512B51202151390E68AE4F090E68B7404E4
:2003C700F07582012290E68AE4F090E68BF075820022C0E0C082C083C007C0D075D000AFBE
:2003E7009174BF5FF59190E6617402F0D20190E6D1E0F51490E6D0E0F51590E6CFE0F516AD
:2004070090E6CEE0F51790E6F574FFF0D0D0D007D083D082D0E032C0E0C082C083C007C02D
:20042700D075D000D202AF9174EF5FF59190E65D7408F0D0D0D007D083D082D0E032C2DC69
:200447003275820022E582FF7014AD1AAE1BAF1C8D828E838FF0E4120D96758201227582BC
:200467000022E582FF7065E51A706190E6837402F07422F07416F07436F090E6047480F0F1
:200487000000000090E6047482F00000000090E604E4F00000000090E6917480F0000000BC
:2004A7000090E6917480F00000000090E6047480F00000000090E6047486F00000000090F8
:2004C700E604E4F0000000007582012275820022AF82BFB00B12014DE58260047582012234
:2004E70075820022C0E0C082C083C007C0D075D000D200AF9174EF5FF59190E65D7401F089
:20050700D0D0D007D083D082D0E032C0E0C082C083C0D075D008AF9174EF5FF59190E65D79
:200527007402F0D0D0D083D082D0E03275820122AF82BF01047F0180027F008F8222C02183
:20054700C0E0C0F0C082C083C007C006C005C004C003C002C001C000C0D075D000758200D7
:20056700120C82AF9174EF5FF59190E65D7410F0D0D0D000D001D002D003D004D005D006A0
:20058700D007D083D082D0F0D0E0D02132C021C0E0C0F0C082C083C007C006C005C004C0B9
:2005A70003C002C001C000C0D075D000758201120C82AF9174EF5FF59190E65D7420F0D0D2
:2005C700D0D000D001D002D003D004D005D006D007D083D082D0F0D0E0D0213290E680E09A
:2005E700FF740A4FF09005DC120DC890E680E0FF74F75FF090E600E0FF74E75F4410F0906E
:20060700E601E0FF74404FF0538EF8D2DDD2E890E668E0FF74084FF090E65CE0FF74014FEB
:20062700F0E0FF74084FF0E0FF74204FF0E0FF74104FF0D2EA90E668E0FF74034FF090E630
:2006470060E0FF74024FF0000000001208B50000000090E670E4F075B2FB75800890E67110
:20066700F0F5A090E672F075B6D890E612E0FF74F45FF00000000090E613E0FF747F5FF04B
:200687000000000090E615E0FF747F5FF0000000000000000090E6047480F00000000090B9
:2006A700E6047402F00000000090E6047406F00000000090E604E4F00000000090E61874AF
:2006C70011F090E61A7409F00000000090E6247402F00000000090E625E4F000000000D2D4
:2006E700AF22C200751900C202C2031205E320031674FC5580FFE58030E2047E0180027ED8
:2007070002EE4FF580800874FC55804402F580100202804375B20B5380F075B40075B60076
:2007270090E682E0FF74C04FF090E6817401F04387010000000000000000C20390E670E4B2
:20074700F075B2FB75800890E671F075B4FFF5A090E672F075B6D81000028012E519600B07
:2007670090E6A0E0FF74014FF080031209817401B5190280030206F57F04C204751900000E
:2007870000000090E6D1E510F00000000090E6D0E511F00000000090E6CFE512F0000000CE
:2007A7000090E6CEE513F0000000000000000090E6A7E0FE20E1F800000000C28690E6D084
:2007C700E0FE90E6D1E0420690E6CFE0420690E6CEE0FD4E700302086FD28774204FF5A02C
:2007E7000000000075BB0000000000E5BB30E7FB0000000010010280C475A0410000000063
:2008070090E6D17401F00000000090E6D0E4F00000000090E6CFE4F00000000090E6CEE4CA
:20082700F0000000000000000075BB0600000000E5BB30E7FB000000000000000090E6D192
:20084700E514F00000000090E6D0E515F00000000090E6CFE516F00000000090E6CEE51708
:20086700F0000000000207C43004110000000090E6487406F0000000000206F5D204AF18AD
:20088700D2860000000090E6D17401F00000000090E6D0E4F00000000090E6CFE4F000001A
:0E08A700000090E6CEE4F0000000000207C45E
:2008B50090E60174EAF090E6F574FFF090E0A4E090E6F3F090E0A5E090E6C3F090E0A6E02F
:2008D50090E6C1F090E0A7E090E6C2F090E0A9E090E6C0F090E0AAE090E6F4F075AF077EA1
:2008F500007FE08F068E9A7E007FE07F008E9B759DE48F9E7F0090E67BE0FE90E67CF00FE0
:20091500BF800040F190E67174FFF0F5B490E672E0FF74804FF043B6800000000090E6C4B2
:20093500E4F00000000090E6C5E4F090E080E090E6C6F090E081E090E6C7F090E082E09063
:20095500E6C8F090E083E090E6C9F090E084E090E6CAF090E085E090E6CBF090E086E09072
:0C097500E6CCF090E087E090E6CDF022A8
:200E4B00040404032A04030706020202030202020100030202030202000000000000003FDD
:200E6B00040404032A04030706020202030202020100030202030202000000000000003FBD
:200E8B00010101220102070700000001020001000100030203020202000000000000093FB6
:200EAB0001040321AF01B70702020203071201000003020202020202000000120900123FF2
:200ECB00000000000000000000000000000000000000000000000000000000000000000007
:0B0EEB0000000000A0000002EA4E0022
:203E00001201000200000040FD0308000000010200010A06000200000040050009022000BF
:203E2000010100801E0904000002FF00000007050202000200070586020002000902200001
:203E4000010200801E0904000002FF0000000705020240000007058602400000040309047B
:203E60001003580049004C0049004E00580020001603580049004C0049004E00580020001E
:083E80002000200000000000FA
:06008800E478FFF6D8FD4C
:1200B20075230075240075253C75263E75271C75283EC9
:2009810090E6B9E0FF24F45003020A87EF240A83F582EF241083F583E473B3C987DF8787CE
:2009A100F587051C346809090A090A0A090A0A0A0A0A120B01E5826003020A9D90E6A0E002
:2009C100FF74014FF0020A9D120B8EE5826003020A9D90E6A0E0FF74014FF0020A9D120B2D
:2009E100FDE5826003020A9D90E6A0E0FF74014FF0020A9D120448E5826003020A9D120C45
:200A0100AD020A9D120533AF8290E740EFF090E68AE4F090E68B04F0020A9D90E6BAE0F5F7
:200A210082120537E582707490E6A0E0FF74014FF0806990E6BCE0FF751A22751B00751C25
:200A4100408F8212044CE582700B90E6A0E0FF74014FF0804790E740E522F090E68AE4F00E
:200A610090E68B04F0803590E6BCE0FF90E6BAE0F51A8F82120469E582702190E6A0E0FF1E
:200A810074014FF0801690E6B9E0F5821204D7E582700990E6A0E0FF74014FF090E6A0E019
:200AA100FF74804FF022AF828F0653067FEE24F75003020AFDEE240A83F582EE240D83F531
:200AC10083E473D6DAEDFDF1FDF5FDF90A0A0A0A0A0A0A0A0A90E6A022EF30E7067EA27F8B
:200AE100E680047EA17FE68E828F832290E6A32290E6A42290E6A52290E6A622900000221F
:200B010090E6B8E0FFBF8002801FBF81028005BF8273803490E740E4F090E741F090E68A85
:200B2100F090E68B7402F08060E52425E0FFE523420790E740EFF090E741E4F090E68AF00D
:200B410090E68B7402F0804190E6BCE0F582120AA7AE82AF838E048F05EE4F7003F582224F
:200B61008C828D83E0FC30E0047F0180027F0090E740EFF090E741E4F090E68AF090E68BD2
:200B81007402F08004758200227582012290E6B8E0FF6005BF0258801B90E6BAE0FFBF0142
:200BA10005752400805290E6BAE0FFBF060280487582002290E6BAE0703190E6BCE0F582D3
:200BC100120AA7AE82AF83E0FD5305FE8E828F83EDF090E6BCE0FF30E70343071053071FBF
:200BE10090E683EFF074204FF0800D7582002290E6B9E0F5820204D77582012290E6B8E018
:200C0100FF6005BF026E802690E6BAE0FFBF0203020C7E90E6BAE0FFBF0105752401805DF0
:200C210090E6BAE0FFBF060280537582002290E6BAE0703C90E6BCE0F582120AA7AE82AF0A
:200C410083EE4F7003F582228E828F83E0FD4305018E828F83EDF090E6BCE0FF30E7034312
:200C6100071053071F90E683EFF074204FF0800D7582002290E6B9E0F5820204D775820137
:200C810022AF82D20510AF02C205EF600E75251C75263E75273C75283E800C75253C752605
:200CA1003E75271C75283EA20592AF2290E6BBE0FFBF01028019BF02028029BF030280330A
:200CC100BF0603020D68BF0703020D7D020D8C7E007F3E8F0690E6B3EEF07E007F3E90E65C
:200CE100B4EEF022AF2690E6B3EFF0AE2590E6B4EEF0227D5C7E3E7F8090E6BAE0F51A7B37
:200D0100008B020BEAB51A0280428D008E018F028D828E838FF0120E2028F8E439F988056E
:200D210089068A0774012DF9E43EFA8F0489828A838CF0120E20F9B9030280067D007E003C
:200D41007F00ED4E6006C3E51A9B50B5ED4E600D8E0790E6B3EFF090E6B4EDF02290E6A08C
:200D6100E0FF74014FF0227E127F3E8F0690E6B3EEF07E127F3E90E6B4EEF022AF2890E610
:150D8100B3EFF0AE2790E6B4EEF02290E6A0E0FF74014FF02201
:2000660079ABE94400601B7A01900E4B78007592E0E493F2A308B800020592D9F4DAF27578
:0200860092FFE7
:1B0D960020F71130F6138883A88220F509F6A8837583002280FEF280F5F0225C
:203F00000204EB0002051200020E400002041E000205450002059400020E3D00020DBC0024
:203F2000020DBE00020DBF00020DC000020DC300020E4900020E4A00020DB100020DB30010
:203F4000020E4200020DBC00020E3C00020E3E00020E3F00020E4100020E4300020E440063
:203F6000020E1F00020DBC00020DBC00020DBC00020DBD00020DC100020DC400020DC6006D
:203F8000020DC200020DC500020DC700020E1E00020DB400020DB600020DB800020DBA0060
:183FA000020DB500020DB700020DB900020DBB00020DB2000203D9004E
:010DB100320F
:010DB200320E
:010DB300320D
:010DB400320C
:010DB500320B
:20008E007800E84400600A79007592E0E4F309D8FC7800E84400600C790090E000E4F0A3C0
:0400AE00D8FCD9FAA7
:010DB600320A
:010DB7003209
:010DB8003208
:010DB9003207
:010DBA003206
:010DBB003205
:010DBC003204
:010DBD003203
:010DBE003202
:010DBF003201
:010DC0003200
:010DC10032FF
:010DC20032FE
:010DC30032FD
:010DC40032FC
:010DC50032FB
:010DC60032FA
:010DC70032F9
:200DC800AE82AF8390E600E05418C423541FFD70057CB1FD801C90E600E05418C423541F39
:200DE800FBBB01067A617B0180047AC27B028A048B058C1A8D1B151A74FFB51A02151BE5A6
:160E08001A451B70F1EE24FFFAEF34FFFB8A068B07EA4B70DD220B
:010E1E0032A1
:010E1F0032A0
:0D005900758128120E45E5826003020056F5
:1C0E200020F71430F6148883A88220F507E6A88375830022E280F7E49322E022E1
:010E3C003283
:010E3D003282
:010E3E003281
:010E3F003280
:010E4000327F
:010E4100327E
:010E4200327D
:010E4300327C
:010E4400327B
:040E45007582002290
:010E49003276
:010E4A003275
:00000001FF
